:020000042000DA
:1000000073700430971100709381C114170101704F
:10001000130141FF170500001305050A970500604D
:10002000938545FE6300B502175600601306C6456A
:1000300063FAC5008322050023A055001105910530
:10004000E3EAC5FE175500001305454F97050070FC
:10005000938545FB1386818063FAC50083220500E2
:1000600023A0550011059105E3EAC5FE13858180A3
:1000700097B50070938505026377B50023200500CE
:100080001105E36DB5FE17450060130525E69740A1
:100090000060E78060E297400060E780A0E80145EB
:1000A000814597000060E780E0F517430060670036
:0400B00043E101A087
:1000B4001387A182B7A70090938687687571239FE1
:1000C4000184D6DA938A0183EECE938D4183EAD0FC
:1000D400138D4184E2D4138C0184938721823ECC16
:1000E400938781823ECA938761823EC6B7A70090F8
:1000F400DED6938B075CB7A70090DAD8138B47271B
:10010400938761853EC4B71700909387C7A13EDCEF
:10011400B717041006C722C526C34AC1CEDED2DCF7
:10012400E6D2958F3AC836CE230007003EDE930709
:1001340000402310FD00B70700A02320FC0023A0EB
:100144000A0023A00D00EF004077C24737A70090B4
:10015400E24683C707009305075C1167130707503E
:10016400938707032390E60052472381FB009307FC
:10017400E002A381FB00B777670023100700938791
:10018400A706324723A2FB00B76774659387F73647
:100194002310070023A4FB00130700109307400754
:1001A40039452390EB002396FB0013093020EF0020
:1001B400901737A400908D4483570D006372F9089B
:1001C40023100D0083570D00C207C18391EF13055F
:1001D400842DEF00807E420541812310AD008357BA
:1001E4000D00C207C183E5D7B24CE25703560D0098
:1001F40083D90C00130A842D93054A0033853701F3
:100204007116EF30B06383570D0003471A00CE9781
:10021400F1172390FC00E31197FA83572A0037A7BC
:1002240000909305075C1145130700402391FB00E0
:100234002390EB00EF00300F83570D00E362F9F8D1
:1002440032475244B70500808357070037A5009012
:10025400814601469385457B130545272310F40009
:100264002310070023100D00EF30E022A247238063
:10027400A700631D055603260B0083268B00032766
:100284008B018327CB01B386C60283254B001384DD
:10029400C1840D878D8723AAC18023A8B18014C08F
:1002A40023A4E18423A6F180A144EF10F024A24703
:1002B4002380A7006314051603A70D0083270B01F1
:1002C400635AF7540325CB0183278B0183A60A00C5
:1002D4003307A702104003288B0083220C00B38548
:1002E400D7023306C702B38505032E96B292635232
:1002F400A0108143832F4B001E97B38FEF407E8E57
:1003040063D3F401214E635EF008139F4300814ED2
:1003140083288B003387D70203230B0083270B0228
:10032400FA97B3881E0376973303E3401A859698A9
:1003340063D36400214503274B0159C3635CF00573
:1003440003264B0283268B023389A4407A96FA96BD
:1003540081404687814563556002850703C8F7FFDE
:1003640005060D07A30E07FF0348F6FF850685055E
:10037400230F07FF03C8F6FFA30F07FFE3CFA5FC76
:1003840018408500CA974A96CA96BA98E3C3C0FD36
:1003940083A60A0083278B01A10E130F0F04E3C960
:1003A400FEF61C400326CB01A1038E07BE9263D246
:1003B400C30403A70D0083278B013307C7021DBFA6
:1003C400E35AF0FD3388A44081450147635C600033
:1003D400850703C6F7FFB386E80005072380C60038
:1003E400E348A7FE18408505C297BA98E3CFC5FD38
:1003F40045B78327CB00850623A0DA00E397F6EA06
:1004040083A70D0023A00A00850723A0FD00EF1099
:10041400B00EA2472380A700E30005EA8547631BCB
:10042400F54221677D171385818383270C00938C04
:10043400C18218C1B762070023A00C008145014F97
:10044400814F1387C1851383C1839308700C854E34
:10045400130EA01F93822239230007007E881306FF
:10046400A01FB386070183C60600AE970D0823803C
:10047400D70083A60C0083270C0093851600BE9634
:1004840083C6060063E0D80283460700B303CE4068
:1004940091EA14412300D70163F6D30023207500A9
:1004A4002300E30123A0BC007D1645FE938FEF5E7D
:1004B400050FE3935FFA14419383E183F9163766DA
:1004C40007002390D30013062639814619A08327F9
:1004D4000C003388D70003480800AE978D062380AC
:1004E400070183A70C009385170023A0BC00E390A9
:1004F400C6FEC24737A600909305065083C6070080
:10050400C567370600909387E78D13040629939EE9
:100514002600370600903ED6A167B69E13064632E3
:10052400FD178A0E32D43ED8370600909307409ABE
:1005340083240C0083D20300B38EDE4037AF0090D7
:1005440013064628818F2EC222D023A00C00938F3D
:100554008180130FCF719386818532D2AE9E3EDAAD
:10056400372E041083C70E0013064003638DC72C77
:10057400130610036380C72CC5679387C78DB388A0
:10058400F200A69823A01F01D902C202F24093D21E
:100594000201239053001388680123A00600C68536
:1005A400014683C705000606850593B7870C93C7E4
:1005B40017003E962300F70090C2E314B8FE938818
:1005C400A81F23A0C00023A01F0191001308A81F87
:1005D400E3151FFCC25772581CC1F2478C43330603
:1005E400F80091070CC2E31BFFFE8340030082570F
:1005F400225806893304F040014A81493716041011
:1006040013060610B3078040B308C4008C43338636
:10061400F80091070CC2E39B07FF8547232EFEFEDB
:100624008327CEFFBEC6B647858BFDFB03268EFF10
:100634001C41B2C636466377F600B64713F9F90F84
:10064400054A1CC1D2571304C4F685091308480986
:10065400E39687FA63050A0023002301CA80125631
:1006640083A70C00B29083C500003386FE00850783
:100674002300B60023A0FC004546E375F6EEC24510
:100684001246A54683C70500139727003E970A071D
:100694001D8F8507329793F7F70F29462309C70063
:1006A4002380F500E3F5F6A8B7A700906247938589
:1006B400075C9167938707502310F700B7077465A9
:1006C4009387072023A0FB00B7772E7493873747BF
:1006D40023A2FB00B777006E9387874723A4FB0010
:1006E400B77761739387574623A6FB00B7776900F2
:1006F40093873796514523A8FB00B7A40090252182
:1007040023100D0031A0552C420541812310AD006A
:1007140083570D001385842DC207C183EDD7B70716
:1007240000019387073023A0FB00014793874B0008
:100734009305E00B9246138637013684BA9603C5B7
:10074400060085078506A38FA7FEE31AF6FE4D076C
:10075400B287E311B7FEB7A700909385075C130532
:10076400200C9307200C23A0FC00752E23100D00F1
:1007740031A0A124420541812310AD0083570D000F
:100784001385842DC207C183EDD7924723A00C00A3
:10079400370801101387E70B13058005A94583A7C4
:1007A4000C00A2869308240111A890C383A70C000F
:1007B4008506850723A0FC006381D80203C60600D2
:1007C4008A07C297E313A6FE8CC383A70C00850691
:1007D400850723A0FC00E393D8FE4D04E31187FCB6
:1007E400B7170110054723AEE7FE01A0AA85370518
:1007F400009013050500EF30D00FA24703C7070090
:10080400930750026318F700370500901305C502DB
:10081400EF301020BA402A449A440A49F659665ADD
:10082400D65A465BB65B265C965C065DF64D05457E
:1008340049618280C5679387A78DB388F200A69823
:1008440023A01F0191B3B257B388F200A69823A046
:100854001F011DBBAA853705009013058505EF30E0
:1008640050094DBF011126CA9384618222CC83D7DB
:10087400040003D481824AC84EC61D8C06CEB289B8
:100884001379F40F6344B4002E892E84B7150090B5
:100894009385C5A12286BE95EF30407A2380290135
:1008A40083D70400F24042493E942390840062447A
:1008B400D244B249014505618280B707051003A7F8
:1008C400077F41111367870023A8E77E83A7077F6B
:1008D4003EC6B247858B89CB370705108327077F30
:1008E4003EC6B247858BFDFBB70705101307000210
:1008F40023A2E77E1307001023A4E77E254723A83D
:10090400E77E83A7077F3EC6B247858B89CB37072F
:1009140005108327077F3EC6B247858BFDFBB707CB
:1009240005101307004223A2E77E254723A8E77E8C
:1009340083A7077F3EC6B247858B89CB370705104F
:100944008327077F3EC6B247858BFDFBB70705109B
:1009540023AC077E37170510A146232ED77E83A725
:10096400C77F370705103EC621A08327C77F3EC631
:10097400B247858BFDFBB247898BE5FB37172233E2
:10098400B70705101307071098C3156713074754D3
:10099400D8C30D4723AEE77E83A7C77F370705106B
:1009A4003EC621A08327C77F3EC6B247858BFDFB89
:1009B400B247898BE5FB41018280B717051083A7F5
:1009C400C77F011122CE3EC6B24726CC858B89EB68
:1009D400371705108327C77F3EC6B247858BFDDBDB
:1009E400B717051003C707009386C1812380E6006B
:1009F40083C4170003C4270083C3370083C247009E
:100A040083CF570003C66700138701852300C700FF
:100A140003CF770083CE870003CE970003C3A700DC
:100A240083C8B70003C6C700938541821376F60FC7
:100A34002380C50003C8D700A300E7012301D70121
:100A44001378F80FA301C70123026700A30217015B
:100A5400A380960023818600A3817600238256001A
:100A6400A382F601A380050121476316E6046314FB
:100A7400080483C8E70083C6E7011387818193F6DE
:100A8400F60F2300D70003C6F70183C5070203C886
:100A940017021376F60F93F5F50F1378F80FA300EA
:100AA400C7002301B700A30107011307000C93F843
:100AB400F80F638CE600B717051023AE077E0147D5
:100AC4007244E2443A85056182801307800AE31484
:100AD400E6FE0547E391E5FE1307B007E31DE8FCD6
:100AE4008A0813F7C803BA9703D6E70003C7270198
:100AF40083C63701B9072207558F6117420723912F
:100B0400C182418301CFA1073306E50083C60700F4
:100B140005058507A30FD5FEE31AC5FEB717051013
:100B240023AE077E71BF9387E18583D60700797171
:100B340022D68506C20626D44AD24ED052CE56CCF0
:100B44005ACAC1822390D700130EC501B7570200B9
:100B5400420E938727941163135E0E01B69737A74D
:100B640000901307072A13060350F29710C393D873
:100B7400070137060510C2070326C67F03D8218262
:100B8400C183BE9893D7080132C6C697131688004E
:100B94001358880033660601B248930E850093C744
:100BA400F7FF14C79306B01731684206C20EC20796
:100BB40054CF930660161308880AC183130F1301D8
:100BC400418293DE0E0154D39306500414D75CCBB8
:100BD4002322C701232667002328E701232C0701CA
:100BE4002320070350D72328D703232A070293F788
:100BF4001800B706051099C783A7C67F3EC6B2473B
:100C0400858BFDFBB7070510FD5694C3B70601118C
:100C1400FD16D4C3B73644559386263294C7835FF2
:100C2400470003230700032887008358C700835E17
:100C3400470193928F0093DF8F00032907018359A3
:100C4400C701370FFF0013168300B3E2F201144FFC
:100C540083544702131A8301931A88003376E601FA
:100C640013938800C20293D8880083230702035495
:100C7400C702336646013363130133FAEA019398DA
:100C84008E0093DA8E0093D20201832F8702131B06
:100C9400890013668600B3E24201B3E85801131ACF
:100CA400880142031398890093D98900832E07038E
:100CB400B3E24201D0C7337BEB01939A86003368D9
:100CC40038011396840013530301A180C20823A89A
:100CD400570062099392860133FAEA0193998300DB
:100CE400458E931684003363630193D80801420848
:100CF40021803363230193948F0033F9E901B3E82E
:100D04004801135808014206C18E23AA6700B3E8BC
:100D1400580013938E00B3F2E40133682801E20310
:100D24004182C20623AC170133687800336656004B
:100D3400E20FC182337FE30123AE07013366F6017C
:100D4400B3E6E601E20E90D3B3E6D601D4D303565C
:100D5400470303C8150003C70500931686002182C4
:100D6400D18E42076208C20633670701C182558FDC
:100D740098D709476376A7069308D5FF3747010438
:100D840093D8280031073703FBEFBA98130F73FD8C
:100D9400930E83FD89058A089387C702130393FD85
:100DA400B386E7013388D7013386670003C705009C
:100DB40063F6A60083C61500A206558F6376A800C5
:100DC40083C62500C206558F6376A60083C6350008
:100DD400E206558F910723AEE7FE9105E392F8FCF6
:100DE400B7070510390E23AAC77F054723AEE77E50
:100DF40083A7C77F370705103EC6B247858B99C7BF
:100E04008327C77F3EC6B247858BFDFB3254A2546D
:100E140012598259724AE24A524B45618280B7AFF5
:100E240000900605938FCF7137BF0090B7B700903D
:100E3400AA9F4111130FCFCF9387C7BF2E9F138350
:100E44008F0022C6BE95938F8F04930E8005930660
:100E5400F00F130E600C930883FF2E887A8589089F
:100E64000397E8FF834205009377F70FB383D70313
:100E740093D38300938343FD139603014182B3828A
:100E8400C240C20293D2020163FC560013940201D1
:100E940041848143634804009303F00F63C48600D4
:100EA40093F3F20F8342150023007500B382C2400E
:100EB400C20293D2020163FC5600139402014184DE
:100EC4008143634804009303F00F63C4860093F3E3
:100ED400F20F83428500A3007500B382C240C202B0
:100EE40093D2020163FC56001394020141848143AE
:100EF400634804009303F00F63C4860093F3F20F76
:100F040083429500230475003386C2404206418221
:100F140063FDC6009313060193D30341814263C862
:100F240003009302F00F63C476009372F60F3386C6
:100F3400C7039377F70F9387D7F103470800A304F8
:100F440055002182B297C207C1833E97420741836D
:100F540063FDE6009312070193D20241014663C880
:100F640002001306F00F63C456001376F70F03470D
:100F740018002300C8003E974207418363FDE60042
:100F84009312070193D20241014663C8020013067B
:100F9400F00F63C456001376F70F03478800A300CD
:100FA400C8003E974207418363FDE60093120701A0
:100FB40093D20241014663C802001306F00F63C4D2
:100FC40056001376F70F034798002304C800BA9716
:100FD400C207C18363FCF6001396070141860147EB
:100FE400634806001307F00F63C4C60013F7F70F36
:100FF400A304E80009050908E39368E613830801DC
:10100400410FC105E3996FE4324441018280B7A2E4
:10101400009006059382C271B7BF0090B7B70090E5
:10102400AA924111938FCFCF9387C7BFAE9F138EE0
:10103400820022C6BE9593828208130F800593080E
:10104400F00F930E600C13038EFF2E887E85090328
:101054000317E3FF034605009377F70FB386E7030F
:10106400A182938646FDC206C182158E4206418244
:1010740063FCC800131406014184814363480400DF
:101084009303F00F63C488009373F60F03461500AF
:1010940023007500B306D640C206C18263FDD800A2
:1010A4009393060193D30341014663C803001306D7
:1010B400F00F63C4780013F6F60FB386D703937763
:1010C400F70F9387D7F103470800A300C500A18257
:1010D400B697C207C1833E974207418363FCE80089
:1010E4001316070141868146634806009306F00FF4
:1010F40063C4C8009376F70F034718002300D80091
:10110400BA97C207C18363FCF80093960701C186AE
:10111400014763C806001307F00F63C4D80013F730
:10112400F70FA300E80009050908E312C3F3130E3F
:101134000301A10FA105E398C2F132444101828069
:10114400B7BF00900605938FCFCFB7B7009037AEE7
:101154000090AE9F411141059387C7BF130ECE7116
:1011640022C6BE952A9E93820F04130F800593080E
:10117400F00F930E600C13030EFF2E887E85090377
:101184000317E3FF034605009377F70FB386E703DE
:10119400A182938646FDC206C182158E4206418213
:1011A40063FCC800131406014184814363480400AE
:1011B4009303F00F63C488009373F60F034685000E
:1011C40023007500B306D640C206C18263FDD80071
:1011D4009393060193D30341014663C803001306A6
:1011E400F00F63C4780013F6F60FB386D703937732
:1011F400F70F9387D7F1034708002304C500A182A2
:10120400B697C207C1833E974207418363FCE80057
:101214001316070141868146634806009306F00FC2
:1012240063C4C8009376F70F034788002300D800EF
:10123400BA97C207C18363FCF80093960701C1867D
:10124400014763C806001307F00F63C4D80013F7FF
:10125400F70F2304E80005050508E312C3F3C10FE3
:10126400C105130E0301E3985FF03244410182800B
:10127400B7AF00900605938FCF7137BF0090B7B713
:101284000090AA9F130FCFDF9387C7CF2E9F13839E
:101294008F00BE95938F8F04930E70061306F00F84
:1012A400130E700B930883FF2E887A8589080397A1
:1012B400E8FF834205009376F70FB387D6031377CD
:1012C400F70F1307D7F4A1833E9793170701C18340
:1012D4003387570042074183637DE6009313070178
:1012E40093D30341814263C803009302F00F634424
:1012F40076009372F70F03471500230055003E97BD
:1013040042074183637DE6009313070193D30341AE
:10131400814263C803009302F00F63447600937222
:10132400F70F03478500A30055003E97420741830A
:10133400637DE6009313070193D30341814263C89D
:1013440003009302F00F634476009372F70F034790
:101354009500230455003E9742074183637CE600D1
:1013640093170701C187814263C807009302F00FF6
:101374006344F6009372F70FB387C603034708006C
:10138400A3045500A183938757FAC207C1831D8F15
:1013940042074183637DE6009312070193D2024121
:1013A400814663C802009306F00F634456009376A7
:1013B400F70F034718002300D8001D8F420741830D
:1013C400637DE6009312070193D20241814663C80C
:1013D40002009306F00F634456009376F70F034719
:1013E4008800A300D8001D8F42074183637DE60077
:1013F4009312070193D20241814663C80200930607
:10140400F00F634456009376F70F034798002304C4
:10141400D800B307F740C207C183637CF6009396F4
:101424000701C186014763C806001307F00F634430
:10143400D60013F7F70FA304E80009050908E3979A
:1014440068E613830801410FC105E39D6FE48280C0
:10145400B7AF00900605938FCF7137BF0090B7B731
:101464000090AA9F130FCFDF9387C7CF2E9F1383BC
:101474008F00BE95938F8F08930E70061308F00F9C
:10148400130E700B930883FF2E857A8689080397C1
:10149400E8FF834206009376F70FB383D60393776E
:1014A400F70F9387D7F413D78300BA97C207C18382
:1014B4003387570042074183637DE8009313070194
:1014C40093D30341814263C803009302F00F634442
:1014D40078009372F70F0347160023005600BA975B
:1014E400C207C183637CF8001397070141878142D7
:1014F400634807009302F00F6344E80093F2F70F88
:10150400B387C60303470500A3005600A18393874E
:1015140057FAC207C1831D8F42074183637DE800E8
:101524009312070193D20241814663C802009306D5
:10153400F00F634458009376F70F03471500230018
:10154400D500B307F740C207C183637CF8009396C4
:101554000701C186014763C806001307F00F6344FF
:10156400D80013F7F70FA300E50009060905E39F68
:1015740068F013830801210FA105E3956FF08280C1
:1015840037BF00900605130FCFDFB7B7009037A31E
:1015940000902E9F41059387C7CF1303C371BE9557
:1015A4002A93930F0F04930E70061308F00F130E73
:1015B400700B930803FF2E857A8689080397E8FF4A
:1015C400834206009376F70FB383D6039377F70F1E
:1015D4009387D7F413D78300BA97C207C18333879D
:1015E400570042074183637DE8009313070193D3B7
:1015F4000341814263C803009302F00F63447800FF
:101604009372F70F0347860023005600BA97C20768
:10161400C183637CF80013970701418781426348C3
:1016240007009302F00F6344E80093F2F70FB387C7
:10163400C6030347050023045600A183938757FA82
:10164400C207C1831D8F42074183637DE800931263
:10165400070193D20241814663C802009306F00F4A
:10166400634458009376F70F034785002300D500A1
:10167400B307F740C207C183637CF8009396070160
:10168400C186014763C806001307F00F6344D800FE
:1016940013F7F70F2304E50005060505E39F68F03B
:1016A400410FC10513830801E315FFF18280411145
:1016B4004AC0138961888347090006C622C426C22A
:1016C40085CB37B40090938471881304C4AF03C7E7
:1016D4000400B240FD173A94034504002244050770
:1016E4002300F9002380E4000249924441018280EE
:1016F40083A6418B37B4009083A7818B1304C4AFB6
:101704009384718811472300090013866188930527
:10171400C00F130544002380E400829719C1A381FC
:10172400A18683470900C5F71387018B8347070008
:1017340093C7F7FF93F7F70F2300F700B240224453
:101744003335F0003305A040137565029244024915
:101754001305950D41018280411106C6893F21C1BF
:101764009385718883C70500138661880348060042
:101774009386F7FF37B700901307C7AF93F6F60FBA
:10178400F91793F7F70FBA962380A6003E97090836
:101794002380F500FD572300F70023000601B24023
:1017A40041018280797122D426D252CC56CA5AC8B9
:1017B400138401869384218606D64AD04ECE2147CF
:1017C400835A04002A8A2E8B83C604006360A7040C
:1017D400AA89D687568963E4360933873641B39795
:1017E40037012380E4002310F400414533054541CB
:1017F400B25022543355A940420592540259F24939
:10180400624AD24A424B4181456182803397DA0071
:10181400930785FF93F9F70F2310E400493D63060E
:101824000B009307F00F630AF5060357040083C601
:101834000400A147498F4207958F41833317F7006E
:10184400131907011359090193FA0AF0135989006E
:1018540093170701C18333E92A01E3F036F933977B
:10186400D7002310E400A13563060B009307F00FA3
:101874006309F5020357040083C70400598D420528
:101884003387F9404181A1073315E500B387374118
:101894002310A4002380F40089BF2AC6753D324575
:1018A40069B72AC6553D3245F1B71D71DAC037BB59
:1018B4000090D2C4130ACBF7D6C25EDE86CEA2CC89
:1018C400A6CACAC8CEC662DC66DA6AD86ED6B7BA09
:1018D40000902AC6930B0A081304F00F8145214592
:1018E400D1351375F50FE31B85FE814521455D3D1B
:1018F4009377F50FE38B87FEF5D31307B00C637C66
:10190400F7021307700D6374F7081307B00D6387AC
:10191400E72063E5E7041307D00D639DE71C8145C9
:10192400414549359147E319F5FA814541459D3DC6
:101934002393A18A55B71307900C63F1E7021307A9
:10194400400C6380E706636EF7020547638FE70286
:101954006382071A1307000C63EEE7183247014548
:101964002300F700F6406644D6444649B649264A61
:10197400964A064BF25B625CD25C425DB25D2561C5
:1019840082801307700CE37BF7FC4945E1BF130722
:10199400000DE3FCE7FE1307C00C4545E384E7FCB8
:1019A40075BF81454145FD3B8547E3F7A7F27915AE
:1019B40093140501C1808DD0B70C00909387CC118E
:1019C400370C00903EC29307CC123EC4814521459A
:1019D400D13B9377F50F13F7E700E31F07EE13F7F7
:1019E400070FC146E3EAE6EE13D737001386118BDF
:1019F40005899247098B336CA70093162C00338515
:101A0400D700A247834506000041BE968547B39799
:101A1400870183A90600CD8F130D01012300F60071
:101A240013090102EA8C814D81452145A53B93753B
:101A3400F50FB387BD002380AC00939D0701850C8F
:101A440093DD0D01E3922CFF8545314663D4850176
:101A54001306F00FE362B6E9014C638F0D00814574
:101A6400214589333386890113071C002300A6000E
:101A7400137CF70FE365BCFF93871D01C207C18385
:101A8400E3ECF4E49D8CC20413070404C180130442
:101A940004028147014605A0FD56231004FE2310CD
:101AA400D400860723000700C207050DC18305077C
:101AB4000904630E2D0383450D003388B700338575
:101AC400C500F9D92310F4FE93170801C183938547
:101AD400F7FF2310B40086072300C700C207050DD3
:101AE4001376F50FC18305070904E3162DFDE39F63
:101AF40004ECDDB38145414575318547E3FEA7DC40
:101B04007915131405014180E30804DC7D144204B3
:101B1400814521454180793175F87DBB8145414539
:101B240051318547E3FAA7DA9307E5FF9399070153
:101B340093D90901E38209DAB7040090814521456C
:101B440095311375F50F9377E50013544500937C95
:101B5400F500E39307D81387218B83460700B33737
:101B640090018507D58F2300F700130DCBF7938DD4
:101B7400CAEF39A023108D01090D890D6382AB03CF
:101B84008145214505312A8C3DE8420C135C0C410A
:101B9400E3920CFE23908D01090D890DE392ABFFB6
:101BA400528763960C00B7B700901387C7EF9386EC
:101BB400C417138606049307000819A083C70600F8
:101BC4008315070009078506B387B70291078D8738
:101BD400231FF7FEE314D6FE93371400B307F04037
:101BE40093F707FC93871708E3E8F9CEB387F94026
:101BF4009399070193D90901E39209F4F1B9814555
:101C040021454D36220C2A9C420C135C0C01B5BFB5
:101C1400011122CC26CA138401869384218603559C
:101C2400040083C704004AC806CE1359F50091CFB7
:101C340006052310A400F2406244FD172380F4003B
:101C44004A85D24442490561828095349307F00F56
:101C5400630DF5000357040083C70400598DA107E1
:101C64004205418193F7F70FE1B72AC6F5343245AF
:101C7400D5B7011126CA4AC84EC652C456C25AC064
:101C840006CE2A8B22CCAE8961374205C16A4181D6
:101C940013090B028144FD1A414A035709009317A3
:101CA40015001394070141806364A700631557036B
:101CB4008537418D4205850441810909E39F44FD2F
:101CC4000145F2406244D2444249B249224A924A0E
:101CD400024B05618280B3079B00860403C7070497
:101CE400DA9483C704003A95B307F54093F7F70FE6
:101CF400CE9703C50700F1B75971CECE93893186CB
:101D040003C5090086D6A2D4A6D2CAD0D2CCD6CADC
:101D1400DAC8DEC6E2C4E6C2EAC06EDE6319052490
:101D24001387018A9386218A3AD48357070003D7FD
:101D3400060036D605455D8F630B07229384618ABE
:101D440003D7040063140724938A618903C70A0034
:101D54006307071E938781883EC4938701893EC623
:101D6400938781863EC8938781873ECA938741863D
:101D74003ECC9387418A3ECEB7B700903709009096
:101D840037A400909387C7F7370A00901309C91343
:101D940081441304C4713ED0130ACA0D56D2B2470B
:101DA400025BA69703CC0700D247E29703C707005C
:101DB400C247E29783C7070009E737BB0090130BBC
:101DC400CBEF6394073E37A50090B7B50090130599
:101DD400C5799385C58D713DAA8B3D89814763146F
:101DE400053EFD1B93FBFB0F394763637703860BAB
:101DF40033077A010357070063FCE70037070090B5
:101E04001307C70FBA9B03D50B00AA97C207C18358
:101E1400224793161C007246BA9603D50600035750
:101E24000B0083450600AA97C207C1833386E702E5
:101E340062472390F6006297834707002310C4008B
:101E440063880538E38A072037BB0090B7BB00904E
:101E5400130BCB9F938BCB88854D3D4D930C000387
:101E6400130CF003DA855E852935AA8A3D89631B44
:101E7400053093DA4A0093FAFA0F639CAA0163EFE0
:101E8400BC31BD0D93FDFD0F850D93FDFD0FE37B6F
:101E9400BCFD831704001307F00F938707049D8785
:101EA40093870708C207C18393F6F70F6378F70097
:101EB40093C7F7FFC207FD8793F6F70F03A7C18AFD
:101EC400914763E8E72AB7070090938747080A0712
:101ED4003E971C4382871387E189835707009386C3
:101EE400070D6311D50E9386170003D604001384DF
:101EF400818893F776002310F70085452147214513
:101F0400232004002381E1862310C9002312040046
:101F1400EFF05F8985452145EFF0DF88835709009D
:101F2400938A618903C70A00FD172310F900E3139C
:101F340007E203C5090005EDA25783D70700FD1783
:101F44002257C207C1832310F700E39A07123257BE
:101F540083570700FD17C207C1832310F700E380EE
:101F6400071283D7A189225701452310F700B650E1
:101F7400265496540659F649664AD64A464BB64BF9
:101F8400264C964C064DF25D656182801389818AE8
:101F940083570900D1F713040060130AF00F29A036
:101FA4007D144204418019CCEFF06FF0E31A45FF31
:101FB400130AF00FEFF0AFEFE31F45F17D14420475
:101FC40041806DF87545E1AA93078005B387F60251
:101FD40037B700901307C7CF034607009305F00FE8
:101FE400A183938747FDC207C1831D8E42064182A8
:101FF40063FCC5001315060141858145634805004E
:102004009305F00F63C4A5009375F60F0346070408
:102014002300B7009305F00F1D8E4206418263FC36
:10202400C5001315060141858145634805009305E4
:10203400F00F63C4A5009375F60F03460708230049
:10204400B7049305F00F1D8E4206418263FCC50060
:102054001315060141858145634805009305F00F7A
:1020640063C4A5009375F60F0346070C2300B70855
:102074009305F00FB307F640C207C18363FCF50074
:102084001396070141860145634806001305F00FC6
:102094006344C50013F5F70F9307600CB387F6028A
:1020A40037B600901306C6BF9386D6F18345060063
:1020B4002300A70C1305F00FA183B697C207C183B1
:1020C4003387B70042074183637CE500931507011A
:1020D400C185814663C805009306F00F63C4B6004A
:1020E4009376F70F034706042300D6009306F00FF8
:1020F4003E974207418363FCE60093150701C185BF
:10210400814663C805009306F00F63C4B600937656
:10211400F70F034706082300D6049306F00F3E97F3
:102124004207418363FCE60093150701C18581469C
:1021340063C805009306F00F63C4B6009376F70FE7
:102144008345060C2300D6081307F00FAE97C20789
:10215400C183637CF70093960701C186014763C876
:1021640006001307F00F6344D70013F7F70F23009B
:10217400E60C9257850493F4F40F83C70700E3E059
:10218400F4C245BB93DA4A00854593FAFA0FEFF09F
:102194006FE1E38B0ACED69DE356BCCF714583C76E
:1021A4000900E38607DC3E85D9B337A50090B7B5AF
:1021B40000901305C57E9385C58E653CAA8B3D8929
:1021C4008147E30005C28545EFF0CFDDAA8711B949
:1021D400638E076837BC0090B7BC0090130CCC9F8B
:1021E400938CCC88B70B0090854A938BCB0FE285F8
:1021F40066854134937DF5002A8D63960D58135DF1
:102204004500137DFD0FBD47631BFD60930700036D
:10221400E3E657F993870A0193F7F70F3307590158
:1022240003070700850A93FAFA0F0607229723107B
:102234000700E395FAFEBE8A9307F003E3F957FB20
:1022440037AF0090A287130FCF791303400C930884
:1022540050111308D0291305A01615A02391E700E7
:102264002392E7002393E7002394E7002395E700F4
:102274002396E7002397E700C1076381E71B039ECA
:102284002700839E4700039B6700839F87008396F4
:10229400A7003366DE01839AC7003366CB008395BB
:1022A400E70033E6CF00558E33E6CA004D8E039720
:1022B40007004DD6C206420B135B0B01C182B38BE0
:1022C400664113160E01C205C20BC181418293DB24
:1022D4000B01B382CB40B303B640AE92C20393D397
:1022E4000341C202DA962E9693D20241B3831303BA
:1022F40093150601139C0E01C206C20AC18193DA2A
:102304000A01C182135C0C01B38ED540B382620210
:1023140033065C41C20E420693DE0E414186139E93
:102324000F01C20B42074183B38EAE0293DB0B4114
:10233400135E0E01330BC7413A9E93830308AE9696
:1023440093D3834093820208C2063306A602C203D3
:1023540093D28240C18293D30301C20293D2020179
:10236400B38F7640969F569C33870B03C20F938E90
:102374000E081306060893DF0F01420C420B93DE8E
:102384008E402186135C0C01135B0B01FE9E4206FA
:1023940013070708B30A8B414182C20E420E2187FC
:1023A40093DE0E01135E0E01629BB29A3387E24004
:1023B400B3058E013306CB40330E8E41C20A7697A5
:1023C40093DA0A01B383D340C205420E42074206A0
:1023D400C181135E0E0141834182D693338BB600D3
:1023E400B3825340B38BCE00B303EE403306D641E1
:1023F4007297D69F958D239067012391570023925E
:102404007701239377002394E7002395C70023964D
:10241400F7012397B700C107E393E7E7B7AB009051
:10242400A286938BCB72930D400C130D5011930C19
:10243400D029130CA0169303F00F81A8930703046B
:102444009D8793870708C207C18313F7F70F63F8C3
:10245400F30093C7F7FFC207FD8713F7F70F93172E
:102464000701C1872390F6002398F6002390F60213
:102474002398F6022390F6042398F6042390F60694
:102484002398F60689066383762F83950601039EB7
:1024940006020397060303960604839E0605B3E724
:1024A400C501839F0606D98F03980607D18FB3E72A
:1024B400FE00B3E7FF00B367F80003930600BDDF37
:1024C40013150701C20E41819317080193DE0E0113
:1024D400C205C183C1813387AE40B382F500AA9E91
:1024E40042073388F5404183C20EC20293D20201EF
:1024F40093DE0E01B305B7404208B388D241BE95BE
:1025040013580841939A0F013308A803C208420ED6
:10251400C20593DA0A01135E0E01C18593D80841FE
:10252400B30F5E41C20F3385B503420793DF0F41FA
:10253400418742034206135303014182330BC30014
:10254400569EB3888803931A0E01969E420B130875
:10255400080893DA0A01135B0B01C20E1358884072
:1025640093DE0E01B38F8F03130E0508B3075B01CF
:102574009388080842081358080193950E0193D8CC
:102584008840C207135E8E4033079703B38808411F
:10259400C187C185420E135E0E01F6983306C3400F
:1025A400B382B700938F0F08F2981305070893823C
:1025B4000204420693DF8F40418293D27240C208E4
:1025C4002185C20F93DF0F0193D808013308D84146
:1025D4003305AE403307564193820208569646951A
:1025E4003308C8417E973306F641B30E5B41139E10
:1025F400020113130501135E0E014208C20813956C
:102604000E01420742061358084193D80841135358
:102614000341418541874186937FFE0F63F9C301DE
:10262400134EFEFF420E135EFE41937FFE0FB30E68
:102634000701938E0E0493DE7E40938E0E08C20E25
:1026440093DE0E012390F60113FEFE0F63F9D3010E
:1026540013CEFEFF420E135EFE41137EFE0FB30E39
:102664001601938E0E0493DE7E40938E0E08C20EE6
:1026740093DE0E012398C60113FEFE0F63F9D30106
:1026840013CEFEFF420E135EFE41137EFE0FB30E09
:102694006540938E0E0493DE7E40938E0E08C20E28
:1026A40093DE0E012390C60313FEFE0F63F9D301DC
:1026B40013CEFEFF420E135EFE41137EFE0F1A95EB
:1026C400130505041D85130505084205418123985A
:1026D400C6031373F50F63F8A3001345F5FF420512
:1026E4007D851373F50F33061641130606041D8604
:1026F4001306060842064182239066041375F60FFA
:1027040063F8C3001346F6FF42067D861375F60F81
:1027140033070741130707041D87130707084207F8
:1027240041832398A6041376F70F63F8E300134755
:10273400F7FF42077D871376F70F8D8F9387070482
:102744009D8793870708C207C1832390C60613F7A2
:10275400F70F63F8F30093C7F7FFC207FD8713F77A
:10276400F70F2398E6068906E39176D383A7C18AF7
:102774001147E360F7A0370700908A07130787091A
:10278400BA979C43828785456E85EFF0AF81935756
:102794004D0093F7F70F5687A9EBFD1D93FDFD0F31
:1027A400860DB307BA0183D707006378F500DE9D71
:1027B40083D70D003E954205418193971A00DA971D
:1027C40083D607004A97830707003305D502850A95
:1027D40086073307F40093F7FA0FBE8A9307F003D2
:1027E4002310A700E3F557A1A1BCBE9A1307F00379
:1027F400E346579BC207C18393FAFA0F3387FA4023
:102804001377F70F4A9703070700FD17C207060758
:102814002297C18323100700F5F35687BDBF130722
:10282400F003E36F57A11307F003B70700909387F2
:10283400D71333075741B38657011377F70FB307FD
:102844005901BA96038707008507060722972310C4
:102854000700E399F6FEEDB237BB0090B7BB0090DA
:10286400130BCB8F938BCB836FF00FDF37BC0090B0
:10287400B7BC0090130CCC8F938CCC83A5B20145CC
:102884006FF0EFEEB7B5009037B60090B7B6009092
:102894009385C5BF1306C6CF9386C6DFA287890773
:1028A40003C7E7FF850605068505A38FE6FEA30F8C
:1028B400E6FEA38FE5FEE394E7FF65B88547638BE7
:1028C400F47C638F04748947E395F48AB7B5009068
:1028D40037B600909385C5CF1306C6DF2285130E45
:1028E40070061308F00F1303700B9308B005090565
:1028F4008316E5FF834E0600050693F7F60F33872C
:10290400C70393F6F60F9386D6F42183369776970A
:1029140042074183637DE800931E070193DE0E4165
:10292400814663C80E009306F00F6344D801937682
:10293400F70FB387670203C70500A30FD6FE85050B
:10294400A183B387F840BA97C207C183637CF800B8
:1029540093960701C186014763C806001307F00F69
:102964006344D80013F7F70FA38FE5FEE311E5F9ED
:102974006FF03F80954763EE97FE3707009093977B
:1029840024001307C70ABA979C4382878547E38AC2
:10299400F40A6384046C8947E382F40E8D47639AD6
:1029A400F4FC81450145EFE0BFBD93050008130524
:1029B4000002EFE0FFBC6FF0CFFB8547E386F40431
:1029C400638F04768947E387F40C8D476393F4FAA5
:1029D40081450145EFE0DFA7930500041145EFE0D1
:1029E4003FA76FF00FF9B7B70090238ED7DE6FF0D3
:1029F4004FF8954763EF97F63707009093972400B5
:102A04001307470CBA979C43828785476389F44030
:102A14006387042A8947E385F4188D47639BF4F49C
:102A2400130770063387E60237B600901306C6DF35
:102A34009387D6F4834506001305F00F2183BA97D4
:102A4400C207C1833387B70042074183637CE50033
:102A54001315070141858145634805009305F00F6F
:102A640063C4A5009375F70F034506082300B60059
:102A74001307F00FAA97C207C183637CF70013976B
:102A8400070141878145634807009305F00F63C43C
:102A9400E50093F5F70F9307700BB387F60237B78A
:102AA40000901307C7CF834607002300B608130618
:102AB400F00FA183938757FAC207C1839D8EC20684
:102AC400C182637CD60093950601C185014663C823
:102AD40005001306F00F6344B60013F6F60F8346A1
:102AE40007082300C7001306F00FB387F640C20798
:102AF400C183637CF60013960701418681466348CF
:102B040006009306F00F63C4C60093F6F70F230084
:102B1400D7086FF00FE685476381F4326381041AA6
:102B240089476384F4788D476395F4E4130770064A
:102B34003387E60237B600901306C6DF9387D6F4D0
:102B4400834506001305F00F2183BA97C207C1839A
:102B54003387B70042074183637CE50013150701FF
:102B640041858145634805009305F00F63C4A500C2
:102B74009375F70F034506042300B6001307F00FFF
:102B8400AA97C207C183637CF700139707014187A3
:102B94008145634807009305F00F63C4E50093F58E
:102BA400F70F9307700BB387F60237B7009013073C
:102BB400C7CF834607002300B6041306F00FA18392
:102BC400938757FAC207C1839D8EC206C182637C74
:102BD400D60093950601C185014663C80500130616
:102BE400F00F6344B60013F6F60F83460704230080
:102BF400C7001306F00FB387F640C207C183637C96
:102C0400F600139607014186814663480600930641
:102C1400F00F63C4C60093F6F70F2300D7046FF0D8
:102C24004FD58547638AF454D9C889476393F4D44C
:102C3400130770063387E60237B600901306C6DF23
:102C4400834706009305F00F9387D7F4B697218343
:102C5400BA97C207C18363FCF50013970701418744
:102C64008145634807009305F00F63C4E50093F5BD
:102C7400F70F9307700BB386F60237B7009013076C
:102C8400C7CF834707002300B6001306F00F9387CE
:102C9400B705A182958FC207C183637CF6001396A2
:102CA400070141868146634806009306F00F63C41A
:102CB400C60093F6F70F2300D7006FF08FCBB7B79A
:102CC4000090238ED7DEB7B70090238ED7CEB7B748
:102CD4000090238ED7BE6FF0CFC9B7B5009037B63A
:102CE4000090B7B600909385C5CB1306C6DB9386D8
:102CF400C6EBA287890703C7E7FF85060506850596
:102D0400A38FE6FEA30FE6FEA38FE5FEE394E7FFA1
:102D14006FF02FC6B7B5009037B60090B7B60090E5
:102D24009385C5C71306C6D79386C6E7A2878907C6
:102D340003C7E7FF850605068505A38FE6FEA30FF7
:102D4400E6FEA38FE5FEE394E7FF6FF08FC2B7B50D
:102D5400009037B60090B7B600909385C5C31306AC
:102D6400C6D39386C6E3A287890703C7E7FF850610
:102D740005068505A38FE6FEA30FE6FEA38FE5FEF9
:102D8400E394E7FF6FF0EFBEB7B5009037B600905D
:102D9400B7B600909385C5BF1306C6CF9386C6DF2A
:102DA400A287890703C7E7FF850605068505A38F64
:102DB400E6FEA30FE6FEA38FE5FEE394E7FF6FF0C4
:102DC4004FBB81450145EFE08F8593050004114514
:102DD400EFE0EF849305000813050002EFE02F8471
:102DE4009305000C13054002EFE06F836FF06FB89A
:102DF40081450145EFE0CFC7930500041145EFE09D
:102E04002FC79305000813050002EFE06FC6930572
:102E1400000C13054002EFE0AFC56FF08FB5B7B7F4
:102E24000090238ED7E6B7B70090238ED7D6B7B7D6
:102E34000090238ED7C66FF0CFB3B7B70090238E20
:102E4400D7E2B7B70090238ED7D2B7B70090238EBE
:102E5400D7C26FF00FB2B7B70090238ED7EAB7B7D7
:102E64000090238ED7DAB7B70090238ED7CA6FF0BD
:102E74004FB0130770063387E60237B60090130687
:102E8400C6DF9387D6F4834506001305F00F21832C
:102E9400BA97C207C1833387B70042074183637C73
:102EA400E500131507014185814563480500930535
:102EB400F00F63C4A5009375F70F034706042300BE
:102EC400B6009305F00F3E974207418363FCE5008B
:102ED4001315070141858145634805009305F00FEB
:102EE40063C4A5009375F70F034706082300B604CF
:102EF4009305F00F3E974207418363FCE5001315E9
:102F0400070141858145634805009305F00F63C4BB
:102F1400A5009375F70F0345060C2300B6081307A5
:102F2400F00FAA97C207C183637CF70013970701C8
:102F340041878145634807009305F00F63C4E500AA
:102F440093F5F70F9307700BB387F60237B700902A
:102F54001307C7CF834607002300B60C1306F00FF0
:102F6400A183938757FAC207C1839D8EC206C1828B
:102F7400637CD60093950601C185014663C80500AC
:102F84001306F00F6344B60013F6F60F83460704E6
:102F94002300C7001306F00F9D8EC206C182637C16
:102FA400D60093950601C185014663C80500130642
:102FB400F00F6344B60013F6F60F834607082300A8
:102FC400C7041306F00F9D8EC206C182637CD6002F
:102FD40093950601C185014663C805001306F00FE9
:102FE4006344B60013F6F60F8346070C2300C708A4
:102FF4001306F00FB387F640C207C183637CF60063
:103004001396070141868146634806009306F00F34
:1030140063C4C60093F6F70F2300D70C6FF06F95C7
:10302400B7B5009037B60090B7B600909385C5BF8A
:103034001306C6CF9386C6DFA287890703C7E7FFB7
:10304400850605068505A38FE6FEA30FE6FEA38F7E
:10305400E5FEE394E7FF6FF0CF91B7B5009037B684
:103064000090B7B600909385C5BF1306C6CF93866C
:10307400C6DFA287890703C7E7FF8506050685051E
:10308400A38FE6FEA30FE6FEA38FE5FEE394E7FF1E
:103094006FF02F8EB7B5009037B600909385C5BFFB
:1030A4001306C6CF2285130E80051303C00213082E
:1030B400F00F9308600C09050317E5FF834E060023
:1030C40005069377F70FB386C703A182B306D340EF
:1030D400F696C206C182637DD800939F060193DFF2
:1030E4000F41814E63C80F00930EF00F6344F80143
:1030F40093FEF60FB386170383CF05009377F70F7C
:103104009387D7F1A30FD6FF850513D78600BA9707
:10311400FE97C207C183637CF80093960701C186BA
:10312400014763C806001307F00F6344D80013F780
:10313400F70FA38FE5FEE310E5F96FF08F83B7B5C2
:10314400009037B60090B7B600909385C5BF1306BC
:10315400C6CF9386C6DFA287890703C7E7FF850624
:1031640005068505A38FE6FEA30FE6FEA38FE5FE05
:10317400E394E7FF6FE0FFFF130680053386C60282
:1031840037B700901307C7CF834707009305F00FA5
:103194009387C7022182918FC207C18363FCF50024
:1031A4001396070141860145634806001305F00F95
:1031B4006344C50013F5F70F9305600CB385B6029D
:1031C40037B600901306C6BF834706002300A70046
:1031D4001307F00F9387D7F1B69793D68500B69768
:1031E400C207C183637CF70093960701C186014738
:1031F40063C806001307F00F6344D70013F7F70FF3
:103204002300E6006FE0FFF6B7B5009037B60090F4
:10321400B7B600909385C5C31306C6D39386C6E399
:10322400A287890703C7E7FF850605068505A38FDF
:10323400E6FEA30FE6FEA38FE5FEE394E7FF6FE04F
:103244005FF3B7B5009037B60090B7B6009093859A
:10325400C5C71306C6D79386C6E7A287890703C7DF
:10326400E7FF850605068505A38FE6FEA30FE6FEA8
:10327400A38FE5FEE394E7FF6FE0BFEF81450145CF
:10328400EFD01FEC9305000813050002EFD05FEBAD
:103294006FE03FEE81450145EFD07FD793050004F1
:1032A4001145EFD0DFD66FE0DFEC93078005B387DD
:1032B400F60237B700901307C7CF034607009305FC
:1032C400F00FA183938747FDC207C1831D8E420679
:1032D400418263FCC500131506014185814563489D
:1032E40005009305F00F63C4A5009375F60F03461C
:1032F40007042300B7009305F00FB307F640C20795
:10330400C18363FCF50013960701418601456348B8
:1033140006001305F00F6344C50013F5F70F930778
:10332400600CB387F60237B600901306C6BF9386C7
:10333400D6F1834506002300A7041305F00FA183EB
:10334400B697C207C1833387B70042074183637CC2
:10335400E50093150701C185814663C805009306FE
:10336400F00F63C4B6009376F70F83450604230079
:10337400D6001307F00FAE97C207C183637CF70032
:1033840093960701C186014763C806001307F00F2F
:103394006344D70013F7F70F2300E6046FE07FDDE3
:1033A40093078005B387F60237B700901307C7CF9A
:1033B400034607009305F00FA183938747FDC207D7
:1033C400C1831D8E4206418263FCC50013150601AC
:1033D40041858145634805009305F00F63C4A5004A
:1033E4009375F60F034607082300B7009305F00F03
:1033F400B307F640C207C18363FCF50013960701C7
:1034040041860145634806001305F00F6344C50077
:1034140013F5F70F9307600CB387F60237B60090E5
:103424001306C6BF9386D6F1834506002300A7087A
:103434001305F00FA183B697C207C1833387B70082
:1034440042074183637CE50093150701C1858146EA
:1034540063C805009306F00F63C4B6009376F70FB4
:10346400834506082300D6001307F00FAE97C20762
:10347400C183637CF70093960701C186014763C843
:1034840006001307F00F6344D70013F7F70F230068
:10349400E6086FE01FCE23ACB18A9387618A197165
:1034A4001388118BA2DCD6D29388218B86DEA6DA10
:1034B400CAD8CED6D2D4DAD0DECEE2CCEAC8EEC6B2
:1034C400E6CA23AAC18A13843186938A2188238277
:1034D400D18A3EC242C646C42320050023220500E9
:1034E400232405002326050023280500232A05009C
:1034F400232C0500232E0500232005022322050288
:1035040023240502938941882300040023900A00A0
:103514002390090081452388018AAA8D2147938439
:10352400F187138A0188938B7188138B61881389BF
:103534000186138C2186214523900700230008006F
:10354400238008002300EC002380040023000A00E9
:1035540023800B0023000B0023100900EFE08FA44D
:1035640081452145EFE00FA4034D040063020D02E1
:10357400F65066546A85D6544659B659265A965A10
:10358400065BF64B664CD64C464DB64D09618280BF
:1035940081452145EFE00FA1AA8C81452145EFE04B
:1035A4006FA0056793FCFC0F1306F00F137DF50F56
:1035B4007D176387CC046EC8930C900DEA8D3A8D09
:1035C40021A0AA8D63080D0281452145EFE08F9D5E
:1035D4009307FDFF139D07019307F00F135D0D0182
:1035E4001375F50FE39FFDFC9307800D6304F50449
:1035F400E31995FD4D4D83470400BDDB3E8D8DBF22
:103604001306800DE319CDFA1305F103EFE0EFA9DA
:103614002A8D75F18346F1031306200C6384C604D6
:103624001306900C638EC6021306000C638CC6004E
:10363400514DD1B7035709006E8DC24D2183E30567
:10364400A7FD4DBF81454145EFE0CF95AA8C81454B
:103654002145EFE02F95A1466309D5001D4D61BFBB
:10366400454D51BF130D500279B781454145EFE0F7
:103674006F939306F5FFC2062390A900C182916758
:1036840063FFF62C81454145EFE0CF919306F5FFAA
:10369400C2062390AA00C182916763F4F62C814587
:1036A4002145EFE02F901375F50F2380A4008D467C
:1036B40063EEA64E93161500AA96A1066396DC4EF9
:1036C40025CD938701873ECC9387C1863EC89387D7
:1036D400C1873ECA938C818729A083C70400637D78
:1036E400FD0481452145EFE0EF8BE2478145EA97F0
:1036F4002380A7001145EFE0EF8AC2478145EA978E
:103704002380A7001145EFE0EF89D2478145EA976E
:103714002380A7002145EFE0EF88B387AC01137540
:10372400F50F050D2380A7008547137DFD0FE3F6F4
:10373400A7FA130D4002C1B5034D0400E31A0DE2CC
:1037440083C604000546638BC6188D45694DE39115
:10375400B6E29385C18603C515006D4DE31AC5E035
:103764001386C18703481600E314A8E003C52500A7
:10377400E31005E103482600E31CA8DE83C5050029
:103784006383051F8946E395D5DE83460600638F70
:10379400064509466D4DE39DC6DC9385C18A1385B4
:1037A400C189114690C12ECE9945C146138701891E
:1037B4009387D189238BB188130610202300D50069
:1037C4002380D7002ACA3ECC232007002312C70037
:1037D400BD45C14603D60A0011453D0603D709007D
:1037E400E116B336D0003356A6402E978D063357D4
:1037F400D740931606019387A18942074183138614
:103804008189C18232D02310E6002390D70023900F
:10381400D18A1305F1033ED22391E18AEFE0EF88C8
:103824002A8DE31A05DC8346F1031307A00D494DE5
:10383400E393E6DC81454145EFD0DFF62A8D8145EF
:103844002145EFD03FF61375F50F130FDDFF131766
:103854001500420F2300AA00135F0F010D07631E1A
:10386400EF0E1307F5FF1377F70F894663E7E60EAC
:10387400938701876ED6814F3ED4938C8186FA8DCF
:10388400814521457EC8EFD0FFF1137DF50F8145B9
:103894002145EFD03FF103C804009387EDFF139354
:1038A40007011375F50F1353030163070802225729
:1038B4009388418683470700C24F6385A7078547DE
:1038C40001A803461700BE8505078507630ECD04CE
:1038D40093F6F70FE3E706FF3D4D31BB03C6C18600
:1038E4006D4DE317D6C883C6C187E393C6C8138555
:1038F400C1899385C18A21479387D189238BD18834
:103904002ECE23A00500238801882ACA3ECC23009A
:10391400E5002380E7009D45A14603D60A000D4536
:103924001D066DBD814681451387418783470A0083
:103934003308F701135645003387BC003D89C6950B
:10394400850F2300D8002300C7002380A50093FF20
:10395400FF0F63FCFF049A8D25B7394D69B9214DDA
:1039640059B9254D49B9034506006303B524894671
:10397400E310D5C09386C18A0D4798C236CE9146CE
:10398400238BD188B70601021386C18923A8D18865
:1039940021479387D1892300E600414732CA3ECCB0
:1039A4002380E700BD45C1468DBF6E8F814521450B
:1039B4007AC8B25DEFD01FDF81452145EFD09FDE8D
:1039C40081451145EFD01FDE81451145EFD09FDDC4
:1039D400424F938841866D1F131D0F01135D0D0126
:1039E400630E0D00814521457D1DEFD0BFDB420DE7
:1039F400135D0D0193884186E3160DFE83460A008C
:103A0400ADCE13874187834507003247054633858A
:103A1400BC00834E07003387B80003470700034503
:103A2400050009073317E6003316A600518F3376D5
:103A3400D7016312E604138EF6FF13854187137EC4
:103A4400FE0F2A9E138641870543630ACE1003475F
:103A540016000506B387E80083C707006697034787
:103A640007008907B317F3003317E300D98F33F73F
:103A7400D701E38CE7FC614DBDBE92471387818873
:103A840083D60700232007002312070089C6239446
:103A9400D18A239F018803C50B0083450B0003478C
:103AA4000C001306F5FF13881500835609001376DE
:103AB400F60F1378F80F79EB37B700901307C7AFF9
:103AC4003297A1822300D7008545214721452380D1
:103AD400CB0023000B012300EC00EFD0BFCC8545C5
:103AE4002145EFD03FCC034D0400E3130DA8F2476A
:103AF40003DE0A0003D3090003A80700925783C812
:103B0400040023A0CD0103D50700825723A26D0032
:103B140023A41D0183D50700D24723AA0D0123A6A0
:103B2400AD0003C60700E24723A8BD0023ACCD00C7
:103B340083C6070023AEDD00B7B600909386C6DFC8
:103B440023A0DD02B7B600909386C6CF23A2DD0280
:103B5400B7B600909386C6BF23A4DD0211BCA2476A
:103B6400938C818703C80700AE8731A0E307C5F0B3
:103B7400834715000505E69783C70700B337F000B0
:103B84008507B377F800FDF35D4DB5B437B7009002
:103B94001307C7AF3A96791589052300D60013F8A1
:103BA400F50F1376F50F29BF2D4DB1B4294DA1B4EE
:103BB4009388C18913870189238BD18893060010C8
:103BC400A1451388C18A9387D1892310D7008946D8
:103BD4002301D7002380B8002380B70042CE46CA11
:103BE4003ECC2320A8009D45A14605BB9386C18AEF
:103BF400094798C236CE9146238BD188B706010275
:103C04001386C18923A8D18841479387D18923008A
:103C1400E600214732CA3ECC2380E7009D45A146F9
:103C240055BE370700909307C71B032FC71B83AEEE
:103C3400470003AE870003A3C70083A8070103A8B6
:103C44004701944F03D7C70183C7E70179717946C8
:103C540022D48A852A84094506D67AC076C272C4DB
:103C64001AC646C842CA36CC231EE100230FF1000F
:103C74004D2BA2850945E128B7050090054693859B
:103C8400451E0945792B01A07D558280411122C42E
:103C940006C62E84692301C989675CC00145B24008
:103CA4002244410182807D55DDBF7D1513352500F9
:103CB4008280411106C6A523B24013351500330591
:103CC400A040410182807D558280B7170090938780
:103CD4000795944337B70090130707093695636B2C
:103CE400E50037070190130707806365A70088C3C1
:103CF40036858280FD5636858280411122C426C2D3
:103D040006C62E84B284212B29C18DC4A285330812
:103D1400940037370110A94635461C43E3CF07FE0C
:103D240083C705001CC383C70500638BD7008505C3
:103D3400E39505FF2685B2402244924441018280E6
:103D44001C43E3CF07FE10C3DDB77D55EDB7797192
:103D540056CAAE8AB705009009469385C51D22D47C
:103D640026D24AD04ECE52CC06D62A8A7144552940
:103D7400BD492549F15431A893978601E18771140F
:103D840005469305F1005285A307F1005929630DF7
:103D94009402B3978900B3F75701B3D7870093F719
:103DA400F70F9386070313877703E377F9FC9317D9
:103DB4008701E187711405469305F1005285A30735
:103DC400F1008521E31794FCB25022549254025915
:103DD400F249624AD24A456182800000197106C2E2
:103DE4000AC40EC612C816CA1ACC1ECE22D026D2B7
:103DF4002AD42ED632D836DA3ADC3EDEC2C0C6C267
:103E0400CAC4CEC6D2C8D6CADACCDECEE2D0E6D296
:103E1400EAD4EED6F2D8F6DAFADCFEDE73252034E4
:103E2400F32510340A86C12073101534B72200001C
:103E34009382028073A0023092402241B2414242F6
:103E4400D2426243F243025492542255B25542562E
:103E5400D2566257F257064896482649B649464A0A
:103E6400D64A664BF64B065C965C265DB65D465EAE
:103E7400D65E665FF65F09617300203001A0000022
:103E8400B7C7000283A687FF03A787FFE38EE6FE7A
:103E9400732600B0B7C6000283A786FF998FE3EDAF
:103EA400A7FE732500B0118D3377F5023355F50263
:103EB4003E07B357F7023E053E958280411122C466
:103EC4001384C18B084006C609C5B240224441018F
:103ED400828005457537130540065D3708C0B2403A
:103EE4002244410182804111B705009022C4154645
:103EF4002A849385051E054506C625261305140048
:103F04000D33B7270110D85FB706FDFF4111FD1629
:103F140006C6758FD8DF985FB7060300558F98DF04
:103F2400713FF167938707203355F502B7370110C6
:103F34007D1588CF98471367170098C7B747008047
:103F44009387C7D273905730F327103093F7070243
:103F540091C799677390073073503000B2404101A4
:103F640082808280AA85814601460145F9A14111DA
:103F740022C406C6970700009387A7542A8499C3CE
:103F84008145352B971700009387C75A88431C55E2
:103F940091C38297228571314111971700A09387AD
:103FA400C76422C4171400A0130424641D8C26C201
:103FB40006C60984BE8411E42244B24092444101FD
:103FC4004DB77D1493172400A6979C438297E5B7B9
:103FD4004111971700A09387476122C4171400A0CA
:103FE4001304A4601D8C26C24AC006C609848144F9
:103FF4003E89639784023137971700A09387E75E61
:10400400171400A01304645E1D8C098481443E8946
:10401400639F8400B2402244924402494101828059
:1040240093972400CA979C4385048297D9B79397A2
:104034002400CA979C4385048297D9BFB3C7A500BF
:104044008D8B3307C50081E78D4763EEC700AA87D0
:104054006370E50A83C6050085078505A38FD7FE2F
:10406400E3EAE7FE828093763500AA8791CA83C685
:10407400050085078505A38FD7FE93F63700FDB7A6
:104084009376C7FF138606FE63F0C70683A3050075
:1040940083A2450083AF850003AFC50083AE05014D
:1040A40003AE450103A3850183A8C5019385450299
:1040B40023A0770003A8C5FF23A2570023A4F70178
:1040C40023A6E70123A8D70123AAC70123AC6700CD
:1040D40023AE17019387470223AE07FF75B79041BC
:1040E4009107910523AEC7FEE3EBD7FEE3E4E7F6C1
:1040F400828039713EDA2ED232D436D63AD842DCB6
:1041040046DE97D7FF0F9387279022CC804326CA99
:1041140006CEAA8409C41C4C99E32285752D0C444F
:1041240054102686228536C6EF00D03AF240624407
:10413400D24421618280011126CA4AC806CE22CC0B
:104144004EC652C4AA842E8901C51C4D91E369252B
:104154009C4C804499E32685412597C7FF0F93879C
:10416400E715631CF402C0408357C400A18BB1C798
:104174001C48A1C7FD59294A1C4483450900FD1761
:10418400B1E91CC463DE07062286A94526855D20A5
:10419400FD576308F502294535A097C7FF0F93879C
:1041A400E7136314F4008044C1B797C7FF0F9387E4
:1041B400E70EE31BF4FAC04445BFA2852685B52269
:1041C40055D97D55F2406244D2444249B249224A0B
:1041D400056182801CC4050963D70700184C63CBB2
:1041E400E700638945011C401387170018C023802A
:1041F400B70059B7228626853528E31F35F7D1B78E
:104204001C401387170018C029472380E70061B7B3
:1042140097C7FF0F9387477FAA85884329BF6FF00D
:10422400DFA897C7FF0F9387277EB2862E86AA85BD
:104234008843C9A0011122CC26CA4AC806CE4EC65C
:10424400AA842E89328401C51C4D91E3712397C73A
:10425400FF0F9387A7066319F406C0401C4C1CC4C7
:104264008357C400A18BC9C31C48BDCF1C48084058
:104274009379F90F1379F90F1D8D5C486346F500A6
:10428400A28526852D292DE51C440505FD171CC492
:104294001C401387170018C0238037015C486389CA
:1042A400A7008357C400858B81CBA9476316F90007
:1042B400A285268529210DEDF24062444A85D24427
:1042C4004249B2490561828097C7FF0F938707016E
:1042D4006314F400804459B797C7FF0F938707FC12
:1042E400E31EF4F6C0449DBFA28526853D283DDD2E
:1042F4007D59D9B7411122C42A842E85B2853686C8
:104304009777001023AC07E206C6EFF01F9FFD5716
:104314006319F50097770010938747E29C4391C394
:104324001CC0B240224441018280411197C7FF0F53
:104334009387876D26C2844322C44AC006C62A894D
:104344002E8489C49C4C99E32685792197C7FF0F55
:104354009387C7F6631CF402C0400317C400931785
:104364000701C18393F68700B5EE93F607019DEE2E
:10437400A5472320F900136707042316E4007D559D
:10438400B2402244924402494101828097C7FF0F00
:104394009387C7F46314F4008044C1B797C7FF0F31
:1043A4009387C7EFE31BF4FAC04445BF918B8DC7D5
:1043B4004C5889C9930744046384F5004A853D2712
:1043C400232A04028357C4002322040093F7B7FD71
:1043D4002316F4001C481CC08357C40093E78700CD
:1043E4002316F4001C4881EF8357C40013070020F0
:1043F40093F707286385E700A2854A856D238357D1
:10440400C40013F7170005C75C4823240400B3074E
:10441400F0401CCC1C480145A5F78317C40013F7D2
:10442400070839DF93E707042316F40089BF898B53
:10443400014791E3584818C4F1BF9387018C9C430A
:104444002A8E9DE317770010130787C623A0E18CFB
:1044540017C5FF7F130505C6BA8719C51C41177513
:104464000010232BF5CCBA87D8437D487D5563478C
:10447400E804630E0E0203A8870863010804931876
:104484002700C29823A0C80003230810054633164A
:10449400E6003363C3002320681023A0D8088946AC
:1044A4006317DE0083264810558E2322C810930616
:1044B40017000A07D4C3BA978CC701458280797163
:1044C40052CC56CA5AC85EC606D622D426D24AD080
:1044D4004ECE62C42A8B2E8A938A018C854B03A408
:1044E4000A0011C84440832984081389F4FF8A040C
:1044F400A294635E0900B250225492540259F249C4
:10450400624AD24A424BB24B224C45618280630ECE
:104514000A00639509007D19F114E1BF931729007E
:10452400CE9783A70708E39847FF5840DC407D17E0
:104534006318270323222401F9DF032C4400638832
:10454400090083A6091033972B01F98E89EE82970F
:10455400584083A70A00E31487F9E30EF4FA41B73D
:1045640023A20400D1BF93162900CE968C4283A6C1
:104574004910758F01E75A858297D9BF2E85829796
:10458400C1BF83D7C500011122CC26CA06CE4AC8B2
:104594004EC613F78700AA842E8471EFD841634D69
:1045A400E000B841634AE0000145F2406244D2446D
:1045B4004249B2490561828058547DD703A9040059
:1045C4009396370123A0040063DD060670488357E1
:1045D400C400918B99C75C401D8E5C5899C33C40C4
:1045E4001D8E5C540C50814626858297FD570357D7
:1045F400C400631DF5009440F54763E8D706B70788
:1046040040208507B3D7D700858BA5C31C48232238
:1046140004001CC09317370163D80700FD576314C7
:10462400F5009C4091E368C84C5823A02401ADDDFB
:10463400930744046384F50026854D29232A040244
:10464400A5B70C500146854626850297FD572A8654
:10465400E31FF5F69C40A5DF75476385E7005947DE
:104664006394E70423A0240181B713670704231686
:10467400E4007D551DBF83A90501E38709F203A961
:1046840005008D8B23A0350133093941014791E39E
:10469400D84918C4E35A20F11C540C50CA864E86DB
:1046A400268582976349A0008357C40093E70704D3
:1046B4002316F4007DBFAA993309A940E1BF9C49A0
:1046C400B9CF011122CC06CE2A8411C51C4D81E735
:1046D4002EC61922B24597C7FF0F938727BE639B47
:1046E400F5004C408397C50095C722856244F2408B
:1046F400056141BD97C7FF0F938747BE6394F500DB
:104704000C44CDB797C7FF0F938747B9E39CF5FCDB
:104714004C44C9BFF24062440145056182800145B1
:104724008280411122C406C62A842316B5002317A9
:10473400C50023200500232205002324050023228D
:10474400050623280500232A0500232C05002146FD
:1047540081451305C505FD2497170000938787BF7E
:104764005CD0971700009387E7C11CD4971700000B
:10477400938747C65CD497170000938707C900D076
:104784001CD8B240224441018280970500009385E1
:1047940045F3B9A2411126C2130680069384F5FF9E
:1047A400B384C4024AC02E8922C406C69385440732
:1047B400D5262A8419C92320050023222501310581
:1047C40008C4138684068145B52C2285B240224450
:1047D40092440249410182801C4DBDE3411106C649
:1047E40022C497070000938787FA1CD59717000007
:1047F400938747D49C4323240504232605042328B4
:1048040005046314F50085471CCD2A841D2848C07F
:104814002285052808C422852D2048C44840014625
:104824009145013708440546A545E53D48440946F8
:10483400C945C53D85471CCCB24022444101828014
:1048440082804111971700009387C7CE26C2844304
:104854004AC006C69C4C22C42A8999E32685AD3FEA
:10486400938484048044DC40FD1763D607009C4095
:10487400B1CF8440C5BF0317C40031E7C1778507B2
:1048840023220406232004002322040023240400FA
:104894005CC423280400232A0400232C040021469A
:1048A40081451305C405792A232A0402232C040212
:1048B40023240404232604042285B240224492447F
:1048C4000249410182801304840679BF91454A85D7
:1048D400D13588C059FDB1472320F9000144E9BF0F
:1048E400797122D44AD052CC56CA5AC85EC606D66A
:1048F40026D24ECE2A8AAE8A130485040149054B7A
:10490400FD5B09ECB25022544A8592540259F24993
:10491400624AD24A424BB24B4561828004448329A5
:104924004400FD1963D409000040E1BF83D7C400EB
:10493400637BFB008397E40063877701A685528538
:10494400829A3369A90093848406E1BF1971A6DAB7
:10495400AE848395E500A2DC86DE328463DC050048
:1049640083D7C40023A0060093F7070885E79307BD
:1049740000401DA0300836C6EF00702CB246E3415B
:1049840005FE7247BD67F98F7977BA9793B7170019
:104994009CC2F1BF930700041CC0F6506654D65461
:1049A40001450961828083D7C500011122CC06CE5E
:1049B40026CA4AC8898B2E8489CF930774041CC0E5
:1049C4001CC885475CC8F2406244D2444249056130
:1049D400828074003000AA84953FA2452A892685E6
:1049E400552A01ED8317C40013F7072069FFF19BD3
:1049F40093E727002316F400C9B7970700009387AD
:104A040007D99CD48357C40008C008C893E7070893
:104A14002316F400A2475CC8B24791CF8315E40083
:104A24002685EF00102501C98357C400F19B93E745
:104A340017002316F4008357C4003369F9002316C2
:104A4400240151B73D432A876373C3029377F70068
:104A5400BDEFADE5937606FF3D8ABA960CC34CC311
:104A64000CC74CC74107E36BD7FE11E28280B30643
:104A7400C3408A069702000096966780A600230723
:104A8400B700A306B7002306B700A305B7002305A4
:104A9400B700A304B7002304B700A303B70023039C
:104AA400B700A302B7002302B700A301B700230194
:104AB400B700A300B7002300B700828093F5F50F79
:104AC40093968500D58D93960501D58D61B7939600
:104AD40027009702000096968682E78086FA9680E1
:104AE400C1171D8F3E96E374C3F8A5B7DDC183A734
:104AF400C5FF411122C406C626C21384C5FF63D371
:104B040007003E94AA84EF00F01E9387418C9C43D7
:104B140081EF2322040023A2818C2244B240268503
:104B2400924441016F00301D637EF400144033074A
:104B3400D4006396E7009843DC43369718C05CC002
:104B4400D9BFBA87D84319C3E37DE4FE94433386BF
:104B5400D700631F86001040B29694C33386D700F3
:104B6400E31DC7FA10435843B29694C3D8C375B72C
:104B74006375C400B1479CC04DB71040B306C40070
:104B84006316D70014435843B29614C058C0C0C328
:104B940069B78280011126CA93843500F19806CE44
:104BA40022CC4AC84EC6A104B14763F3F404B1440D
:104BB40063E2B4042A89EF00F0139387418C98438D
:104BC4003A8439E09387818C9C4391E781454A85F7
:104BD400B92723A4A18CA6854A859127FD59631979
:104BE4003507B1472320F9004A85EF00D01029A0EA
:104BF400E3D004FCB1471CC10145F2406244D244F5
:104C04004249B249056182801C40858F63CF070207
:104C1400AD4663F6F6001CC03E9404C031A05C406F
:104C24006313870223A2F18C4A85EF00D00C13058D
:104C3400B4009307440061993307F5405DDF3A946B
:104C4400898F1CC05DBF5CC3C5B72287404095BF38
:104C5400130435007198E30285FCB305A4404A852A
:104C64007D2DE31C35FBB5BF1C46FD171CC663DA5E
:104C74000700184E63C5E700A9476394F5006FF079
:104C84006FDB1C422E851387170018C22380B700E0
:104C94008280011122CC26CA4AC84EC652C406CE0E
:104CA4002A89AE893284B304D6007D5A63149400F1
:104CB400014509A8834504004E864A8575370504D5
:104CC400E31645FFF2406244D2444249B249224AC3
:104CD40005618280357122CD26CB4AC94EC706CFE5
:104CE40052C556C35AC1DEDEE2DCE6DAAA89AE84D6
:104CF4003289368409C51C4D99E3EFF0FFAD97B7AF
:104D0400FF0F9387A75B639BF40C83A4490083D7AD
:104D1400C400A18BF5C79C48E5C793070002A30410
:104D2400F1029307000302D22305F10222C6930B7A
:104D3400500297BAFF0F938A6A5C054C294B4A8448
:104D44008347040099C36390770FB30C2441638DA8
:104D54000C00E6864A86A6854E85253FFD576306E8
:104D6400F51E9256E69636D283470400638F071CDD
:104D7400FD571309140002C802CE3ECA02CCA3098F
:104D8400010482D48345090015465685B9271304C6
:104D94001900C24759E913F7070109C713070002AD
:104DA400A309E10413F7870009C71307B002A30995
:104DB400E104834609001307A0026380E608F24772
:104DC4004A848146254603470400930514001307CB
:104DD40007FD6379E60AB5CA3ECE85A897B7FF0FEB
:104DE4009387C74F6395F40083A489000DB797B7E1
:104DF400FF0F9387A74AE39CF4F083A4C90001BF83
:104E0400A6854E85EFF06FD209D97D55FA406A44E4
:104E1400DA444A49BA492A4A9A4A0A4BF65B665C1A
:104E2400D65C0D618280050421BF330555413315DD
:104E3400AC00C98F3EC82289B1B7324793064700F8
:104E4400184336C6634907023ACE03470400930762
:104E5400E002631FF704034714009307A002631BD7
:104E6400F702B2470904138747009C433AC663C15B
:104E740007023ECA35A83307E04093E727003ACE3D
:104E84003EC8E1B7B387670385462E84BA9725BF2A
:104E9400FD57C5B7050402CA814681472546034725
:104EA400040093051400130707FD6376E606F1F288
:104EB400834504000D4617B5FF0F1305A544312D96
:104EC40011CD97B7FF0F9387E7431D8D9307000418
:104ED400B397A700424505045D8D2AC883450400A5
:104EE400194617B5FF0F13052542130914002304AF
:104EF400B102E5233DC197B7FF7F9387A71B95E7D1
:104F04004247B2471377071009CF91073EC692571D
:104F1400D2973ED22DB5B387670385462E84BA97C0
:104F2400BDBF9D07E19BA107D5B778009706000098
:104F3400938666D626860C084E8597000000E70007
:104F44000000FD572A8AE314F5FC83D7C40093F7C5
:104F54000704E39C07EA125555BD78009706000044
:104F6400938666D326860C084E85012AD9BF7971AB
:104F740056CA9C49BA8A984522D426D24ECE52CCDF
:104F840006D64AD05AC85EC6AA892E84B284368A06
:104F940063D3E700BA879CC00347340419C3850769
:104FA4009CC01C4093F7070281C79C4089079CC0A2
:104FB4000329040013796900631A0900130B94018F
:104FC400FD5B5C449840998F634CF9041C40834614
:104FD400340493F70702B336D000A5EB1306340468
:104FE400D2854E85829AFD576303F5041C40114611
:104FF4009840998B544481446397C700B384E64036
:1050040063D3040081441C4418486354F700998F07
:10501400BE94014969047D5B63982405014509A890
:1050240085465A86D2854E85829A631E75017D55C2
:10503400B250225492540259F249624AD24A424B23
:10504400B24B456182800509ADBF3307D400130616
:105054000003A301C7040347540493871600A297CF
:105064008906A381E7049DBF85462286D2854E85A5
:10507400829AE30E65FB050945B7797122D426D2DD
:105084004AD04ECE06D652CC56CA5AC8B68983C622
:1050940085019307E0063289AA842E841386350499
:1050A4006381F61E63E2D706930730066382F60A2D
:1050B40063EDD700638B061E930780056387F6169E
:1050C400930A24042301D40469A893074006638641
:1050D400F60093079006E395F6FE1C40084393F60A
:1050E400070893054500C1C21C410CC363D80700DF
:1050F4001307D002B307F040A301E40497B6FF0FEF
:1051040093860621294765A0930730076383F61A1F
:1051140063EFD7009307F006638FF6049307000745
:10512400E390F6FA9C4193E707029CC109A8930710
:1051340050076382F60493078007E393F6F8930716
:105144008007A302F40497B6FF0F9386A61DE5A07B
:105154001C43938A2504938647009C4314C32381EC
:10516400F5048547B5A293F607041C410CC3BDDEC4
:10517400C207C187A5BF0C401C4313F8050813855B
:1051840047006305080008C39C4339A093F5050450
:1051940008C3FDD983D707001307F006638BE60C19
:1051A40097B6FF0F9386C6162947A30104044C4003
:1051B4000CC463C5050008406D9908C099E3B28A20
:1051C40091CDB28AB3F5E702FD1AB69583C5050001
:1051D4002380BA00B3D5E70263F3E70AA147631E4D
:1051E400F7001C40858B91CB58401C4863C7E700EF
:1051F40093070003A38FFAFEFD1A3306564110C825
:105204004E87CA867000A2852685EFF05FD67D5A48
:105214006314450D7D55B250225492540259F249FB
:10522400624AD24A424B45618280A382D50497B632
:10523400FF0F9386E60D0C40084313F805081C4144
:1052440011056300080208C313F7150001C793E5AD
:1052540005020CC04147B1FB0C4093F5F5FD0CC0B1
:10526400A9B713F8050408C3E30008FEC207C18305
:10527400E1BF97B6FF0F9386A60921473DB7AE87D6
:1052840091B794411C43CC4913F806081385470091
:105294006306080008C39C438CC301A808C393F6A3
:1052A40006049C43F5DA2390B70023280400B28A4D
:1052B40081BF1C43D04181459386470014C383AA10
:1052C40007005685192C01C53305554148C05C407B
:1052D4001CC8A30104042DB714485686CA85268524
:1052E4008299E30945F31C40898B8DE7B247484412
:1052F400E353F5F23E8505B785465686CA8526856D
:105304008299E30965F1050A5C443247998FE345C4
:10531400FAFEE9BF014A930A94017D5BF5B7411196
:1053240022C42A842E859767001023A907E006C6A5
:10533400EFE0BF99FD576319F50097670010938755
:10534400E7DF9C4391C31CC0B240224441018280E8
:10535400411122C42E848395E50006C6712A63494F
:1053640005007C48AA977CC8B2402244410182804F
:105374008357C4007D777D17F98F2316F400EDB7AA
:1053840083D7C500011122CC26CA4AC84EC606CE10
:1053940093F70710AA842E843289B68991C783951E
:1053A400E50089460146FD288357C4007D777D17B3
:1053B400F98F2316F4008315E4006244F240CE868C
:1053C4004A86B24942492685D24405616FE09FF27C
:1053D400411122C42E848395E50006C6E120FD57C1
:1053E4000357C400631BF500FD77FD17F98F2316DF
:1053F400F400B2402244410182808567D98F23168C
:10540400F40068C8FDB78395E50009A0411122C4E2
:105414002A842E859767001023A207D206C6EFE0E0
:10542400BF86FD576319F50097670010938707D16E
:105434009C4391C31CC0B24022444101828041116B
:1054440022C42A842E85B2859767001023A807CE2C
:1054540006C6EFE0BF83FD576319F5009767001098
:105464009387C7CD9C4391C31CC0B24022444101E1
:105474008280411122C42A842E859767001023AFAD
:1054840007CA06C6EFE07F82FD576319F5009767E8
:1054940000109387A7CA9C4391C31CC0B240224406
:1054A40041018280411122C42A842E85B285368628
:1054B4009767001023A407C806C6EFE08FFFFD57C7
:1054C4006319F50097670010938747C79C4391C3FE
:1054D4001CC0B24022444101828093F5F50F2A9604
:1054E4006314C5000145828083470500E38DB7FE40
:1054F4000505FDB782808280411122C42A842E854D
:10550400B28536869767001023AA07C206C6EFE065
:105514008FFBFD576319F50097670010938707C247
:0E5524009C4391C31CC0B240224441018280CE
:04553200EC080090F1
:10553800706A7065675F6465636F64655F696E69EB
:10554800742829206661696C65642077697468200D
:105558007374617475732025750A000050726F6743
:1055680072657373697665204A5045472066696C91
:10557800657320617265206E6F7420737570706F2B
:10558800727465642E000000706A7065675F6465F8
:10559800636F64655F6D63752829206661696C6552
:1055A8006420776974682073746174757320257535
:1055B8000A00000036290080722B0080662A0080CD
:1055C8005A29008042290080D42700800C280080B6
:1055D8000A290080DC280080C4280080D82C00809C
:1055E8009E2C0080642C00802A2C0080122D0080C4
:1055F800402D00800E2C00808A2D00806E2D0080AA
:10560800A62D0080181F0080C22D00800100020016
:105618000400080010002000400080000001000283
:10562800000400080010002000400000FFFFFDFFFC
:10563800F9FFF1FFE1FFC1FF81FF01FF01FE01FC5E
:1056480001F801F001E001C0018000009CA7009072
:10565800ECA700903CA800908CA80090DCA80090D3
:10566800ECA80090FCA80090FCA90090000108108C
:105678000902030A11182019120B04050C131A2128
:10568800283029221B140D06070E151C232A313831
:1056980039322B241D160F171E252C333A3B342D77
:1056A800261F272E353C3D362F373E3F80B2B2A706
:1056B800F6A797E8E89780D1DBD18065B2C5C5B277
:1056C80065458BA7B1A78B45236083979783602394
:1056D800315B7680765B312E516565512E2A454FB8
:1056E800452A233636231C251C13130A0A50726FC9
:1056F8006772616D206861732065786974656420DC
:105708007769746820636F64653A00003078000038
:10571800747261700A0000000000000000000000C0
:105728000000000000000000000000000000000071
:105738000000000000000000000000000000000061
:105748000000000000000000000000000000000051
:105758000000000000000000000000000000000041
:105768000000000000000000000000000000000031
:105778000000000000000000232D302B2000000056
:10578800686C4C0065666745464700003031323327
:105798003435363738394142434445460000000025
:1057A800303132333435363738396162636465668F
:1057B800000000003031323334353637383958007C
:1057C800FFFF3F00FFFF3F00FFFF3F00FFFF3F00DD
:1057D800FFE03F003F803F001F003E000F1F3E00DC
:1057E800873F3C00877F3800C3FF3800C3FF38007D
:1057F800C3FF3000E3FF3000E3FF3000E3FF310078
:10580800E3FF3100E3FF3100E3FF3100E3FF310044
:10581800E3FF3100E3FF3100E3FF3100E3FF300035
:10582800E3FF3000C3FF3000C7FF3800877F380030
:105838008F3F3C000F1F3C001F003E003F003F0011
:10584800FFC13F00FFFF3F00FFFF3F00FFFF3F009A
:10585800FFFF3F00FFFF3F00FFFF3F00FFFF3F004C
:10586800FFFF3F00FFFC3F00FFF83F00FFF03F0055
:10587800FFC03F00FF003F00FF183C00FF783C00DE
:10588800FFF83D00FFF83F00FFF83F00FFF83F003A
:10589800FFF83F00FFF83F00FFF83F00FFF83F0028
:1058A800FFF83F00FFF83F00FFF83F00FFF83F0018
:1058B800FFF83F00FFF83F00FFF83F00FFF83F0008
:1058C800FFF83F00FFF83F00FFF83F00FFF83F00F8
:1058D800FFF83F00FFF83F00FFFF3F00FFFF3F00DA
:1058E800FFFF3F00FFFF3F00FFFF3F00FFFF3F00BC
:1058F800FFFF3F00FFFF3F00FFC13F003F003E00AA
:105908001F003C000F7E3C0087FF3C0087FF3F00E4
:10591800C7FF3F00C7FF3F00C7FF3F00C7FF3F006B
:10592800C7FF3F0087FF3F000FFF3F000FFE3F000C
:105938001FFC3F003FF83F007FF03F00FFC13F00E2
:10594800FF833F00FF073F00FF1F3E00FF3F3C0073
:10595800FF7F3800FFFF3800FFFF3800FFFF3000EF
:10596800030030000300300003003000FFFF3F0059
:10597800FFFF3F00FFFF3F00FFFF3F00FFFF3F002B
:10598800FFFF3F00FFFF3F00FFFF3F00FFC13F0059
:105998003F003E001F003C001FFE3C000FFF3D0083
:1059A8000FFF3F008FFF3F008FFF3F008FFF3F003B
:1059B8008FFF3F000FFF3F001FFE3F003FFC3F00EF
:1059C800FF003F00FF013F003F003F000FFE3F0088
:1059D8000FFF3F0087FF3F00C7FF3F00C7FF3F00A3
:1059E800C7FF3F00C7FF3F0087FF3F000FFF3B0097
:1059F8000FFE39001F0038007F003C00FF833F0086
:105A0800FFFF3F00FFFF3F00FFFF3F00FFFF3F009A
:105A1800FFFF3F00FFFF3F00FFFF3F00FFFF3F008A
:105A28001FFE3F001FFE3F001FFC3F001FFC3F0002
:105A38001FF83F001FF83F001FF13F001FE33F0022
:105A48001FE33F001FC73F001F8F3F001F8F3F000E
:105A58001F1F3F001F3F3E001F3F3C001F7F3C00B1
:105A68001FFF38001FFF31001FFF21000100200029
:105A780001002000010020001FFF3F001FFF3F0022
:105A88001FFF3F001FFF3F001FFF3F001FFF3F009A
:105A98001FFF3F00FFFF3F00FFFF3F00FFFF3F00EA
:105AA800FFFF3F00FFFF3F00FFFF3F00FFFF3F00FA
:105AB800FFFF3F000F003E000F003E000F003E00BA
:105AC800FF3F3E00FF3F3C00FF7F3C00FF7F3C0064
